S0030000FC
S3FD200005002000FFFC20000BFE200011242000112420001124200011242000112420001124200011242000112420001124200011242000112420001124200011242000112420001124200011242000112420001124200011242000112420001124200011242000112420001124200011242000112420001124200011242000112420001124200011242000112420001124200011242000112420001124200011242000112420001124200011242000112420001124200011242000112420000F20200011242000112420001124200011242000112420001124200011242000112420001124200011242000112420001124200011242000112420001124B3
S3FD200005F820001124200011242000112420001124200011242000112420001124200011242000112420001124200011242000112420001124200011242000112420001124200011242000112420001124200011242000112420001124200011242000112420001124200011242000112420001124200011242000112420001124200011242000112420001124200011242000112420001124200011242000112420001124200011242000112420001124200011242000112420001124200011242000112420001124200011242000112420001124200011242000112420001124200011242000112420001124200011242000112420001124200011244F
S3FD200006F0200011242000112420001124200011242000112420001124200011242000112420001124200011242000112420001124200011242000112420001124200011242000112420001124200011242000112420001124200011242000112420001124200011242000112420001124200011242000112420001124200011242000112420001124200011242000112420001124200011242000112420001124200011242000112420001124200011242000112420001124200011242000112420001124200011242000112420001124200011242000112420001124200011242000112420001124200011242000112420001124200011242000112456
S3FD200007E820001124200011242000112420001124200011242000112420001124200011242000112420001124200011242000112420001124200011242000112420001124200011242000112420001124200011242000112420001124200011242000112420001124200011242000112420001124200011242000112420001124200011242000112420001124200011242000112420001124200011242000112420001124200011242000112420001124200011242000112420001124200011242000112420001124200011242000112420001124200011242000112420001124200011242000112420001124200011242000112420001124200011245D
S325200008E020001124200011242000112420001124200011242000112420001124200011242A
S3FD200009004E5600004E5E4E754E5600004FEFFFE82D48FFE82D49FFEC2D40FFF0206EFFE8B1EEFFEC674A6030206EFFE82D48FFF8202EFFF852802D40FFE8206EFFEC2D48FFF4202EFFF452802D40FFEC226EFFF8206EFFF410101280202EFFF02D40FFFC202EFFFC53802D40FFF0202EFFFC66B84E5E4E754E560000598F41F9200021002D48FFFC602A206EFFFC20280008206EFFFC22102241206EFFFC2228000420414EBAFF66720C202EFFFCD0812D40FFFC206EFFFC201066CE206EFFFC2028000466C4206EFFFC2028000866BA4E5E4E754AFC4E754E5600004FEFFFB42D48FFB42D40FFB87020B0AEFFB8620001D6222EFFB444817003C280A9
S3FD200009F82D41FFF8202EFFF8673E202EFFB890AEFFF82D40FFB8206EFFB42D48FFF0202EFFF052802D40FFB4206EFFF070001080202EFFF853802D40FFEC202EFFEC2D40FFF8202EFFEC66CE202EFFB8EA882D40FFF8202EFFF867000108206EFFB42D48FFF4202EFFF872204C001800202EFFB4D0812D40FFB4206EFFF42D48FFE8202EFFE858802D40FFF4206EFFE870002080206EFFF42D48FFE4202EFFE458802D40FFF4206EFFE470002080206EFFF42D48FFE0202EFFE058802D40FFF4206EFFE070002080206EFFF42D48FFDC202EFFDC58802D40FFF4206EFFDC70002080206EFFF42D48FFD8202EFFD858802D40FFF4206EFFD870002080F0
S3FD20000AF0206EFFF42D48FFD4202EFFD458802D40FFF4206EFFD470002080206EFFF42D48FFD0202EFFD058802D40FFF4206EFFD070002080206EFFF42D48FFCC202EFFCC58802D40FFF4206EFFCC70002080202EFFF853802D40FFC8202EFFC82D40FFF8202EFFC86600FF18721F202EFFB8C081E4882D40FFF8202EFFF8674A206EFFB42D48FFF4206EFFB4202EFFF841F00C002D48FFB4206EFFF42D48FFC4202EFFC458802D40FFF4206EFFC470002080202EFFF853802D40FFC0202EFFC02D40FFF8202EFFC066CE7203202EFFB8C0812D40FFB8202EFFB86732206EFFB42D48FFBC202EFFBC52802D40FFB4206EFFBC70001080202EFFB8538068
S3FD20000BE82D40FFFC202EFFFC2D40FFB8202EFFFC66CE4E5E4E7546FC27004FF92000FFFC203C200000214E7B0C054EBA06A84FF920005C082C7C000000004E5600004BF92000500441F92000500843F92000500491C92008670A41F9200050044EBAFD8E41F92000500443F92000500491C92008670A41F9200050044EBAFD7241F920002100200867044EBAFD044EBA13964EBAFC88487A001842A74EBA0016508F4E5E42A74EBA13C6588F4AFC4E75000000004E5600004FEFFFBC70002D40FFE870012D40FFE860147200202EFFE84EBA074E202EFFE852802D40FFE87005B0AEFFE86EE470014EBA093670014EBA06904EBA06224EBA08424EBA89
S3FD20000CE008B62D40FFD0202EFFD02F40000441F9200020602E884EBA09EE70012D40FFF0203C000186A02D40FFEC70012D40FFF86000020070024EBA06202D40FFCC202EFFCC2D40FFE47201202EFFE44EBA0786203C000186A04EBA087870014EBA09282D40FFC87001B0AEFFC8660870012D40FFF4600670002D40FFF47200202EFFE44EBA0752203C000186A04EBA08447001B0AEFFF466287200202EFFF84EBA073670024EBA05B42D40FFC4202EFFC42D40FFF87201202EFFF84EBA071A60387200202EFFF84EBA070E202EFFF852802D40FFF87005B0AEFFF86F0C7201202EFFF84EBA06F2601070012D40FFF87201202EFFF84EBA06E0202E93
S3FD20000DD8FFEC4EBA07D470014EBA05E42D40FFFC202EFFFC6780202EFFF8B0AEFFE46600008670002D40FFE070002D40FFDC70002D40FFE06066203C000186A04EBA079A70012D40FFDC60147201202EFFDC4EBA068C202EFFDC52802D40FFDC7005B0AEFFDC6EE4203C000186A04EBA076C70012D40FFDC60147200202EFFDC4EBA065E202EFFDC52802D40FFDC7005B0AEFFDC6EE4202EFFE052802D40FFE07003B0AEFFE06C92607870002D40FFD870002D40FFD470002D40FFF0203C000186A04EBA071870012D40FFD460147201202EFFD44EBA060A202EFFD452802D40FFD47005B0AEFFD46EE4203C000186A04EBA06EA70012D40FFD8601E31
S3FD20000ED07200202EFFD84EBA05DC203C000186A04EBA06CE202EFFD852802D40FFD87005B0AEFFD86EDA7001B0AEFFF0660E222EFFEC70024C4018012D41FFEC70012D40FFF87001B0AEFFF06700FDFA6000FDC04AC84E734E5600004FEFFFE02D48FFE0206EFFE020102D40FFF8206EFFE0302800023D40FFE6206EFFE030103D40FFE47200322EFFE4700CE0A1203C000000FFC2802D41FFEC7400342EFFE4203C00000C00C480E0827200322EFFE47003C28084812D42FFF07200322EFFE4E481203C000000FFC2802D41FFE8206EFFE0202800042D40FFF4222EFFEC7004B28067147005B280670E7006B28067087007B28067024E71222EFFE8F6
S3FD20000FC8703FB280620001347002B2806500012C5581323B1A0848C14EFB1A00003F005E0078008E008E008E007A007C007E00800082008E00840086008E008E008E008E008E008E008E008E0088008A008A008A008A008A008A008A008C008C008C008C008C008C008C008C008C008C008C008C008C008C008C008C008E008E008E008E008E008E008E008E008E008E008E008E008E008E008E008E4E71222EFFF07004B28067147008B28067147009B2806714700CB280671460184E716000009C4E71600000964E71600000904E716000008A4E71600000844E71222EFFF07004B28067147008B28067127009B2806710700CB280670E60104E7135
S3FD200010C0605E4E71605A4E7160564E7160524E71604E4E71604A4E7160464E7160424E71603E4E71603A4E7160364E7160324E71602E4E71602A4E7160264E7160224E71601E202EFFE82D40FFFC7040B0AEFFFC620C203C000000C0B0AEFFFC64024E714E5E4E754E5600004FEFFFEC48D7030741EF00184EBAFDEE4CD703074FEF00144E5E4E734E7B08014E714E754E560000598F43F92000000041F9200005002008B3C0673A70002D40FFFC6026222EFFFC43F920000000202EFFFC41F92000050020300C0023801C00202EFFFC52802D40FFFC203C00000100B0AEFFFC62CE41F92000000020084EBAFF9C4E5E4E752F030280000000FF2609EC
S3FD200011B8224824114E4E2281261F4E754E5600004FEFFFE42D40FFE42D48FFE82D49FFEC2D41FFF0206EFFEC20102D40FFFC202EFFF0670870D11D40FFF5600670D01D40FFF5226EFFE841EEFFFC222EFFE47000102EFFF54EBAFFA01D40FFF47000102EFFF42D40FFF8206EFFEC202EFFFC2080222EFFF87000B280670E7001B28067107002B28067066008700060067002600270014E5E4E754E5600004FEFFFF42D48FFF42D49FFF87200226EFFF8206EFFF470004EBAFF582D40FFFC202EFFFC4E5E4E754E560000303C300733C04012000070001039401200020800000367F24E5E4E754E56000041F9200000002208203CFFFF0000C28008C163
S3FD200012B0000923C1400000084E5E4E754E560000203C400000000280C0000000528023C040000000203C000000000280FFF800000680000000614E7B0C044EBAFF8E4EBAFFAA4EBAFE584E5E4E754E560000518F203C401F00002D40FFF8226EFFF8206EFFF8720D2010C0812280203C401F00002D40FFFC226EFFFC206EFFFC720D2010808122804E5E4E754E560000598F2D40FFFC2039401F00040800000867F4222EFFFC7001E3A872FFD081C0B9401F000C4E5E4E754E5600004FEFFFF42D40FFF4202EFFF453802D40FFF4203C4010006E2D40FFF8226EFFF8206EFFF8222EFFF47002C1C17203E1A946811010C2801281203C401000262D4049
S3FD200013A8FFFC226EFFFC206EFFFC202EFFF47201E1A946811010C28012814E5E4E754E560000518F2D40FFF8202EFFF853802D40FFF8740014394010003E222EFFF87001E3A8C480670870002D40FFFC600670012D40FFFC202EFFFC4E5E4E754E5600004FEFFFE82D40FFE82D41FFEC202EFFE853802D40FFE8203C4010006F2D40FFF8226EFFF8206EFFF8222EFFE87002C1C17203E1A946811010C2801281203C401000272D40FFF4226EFFF4206EFFF4202EFFE87201E1A91010828012817001B0AEFFEC6622203C4010000F2D40FFF0226EFFF0206EFFF0202EFFE87201E1A91010828012816022203C4010000F2D40FFFC226EFFFC206EFFFCE1
S3FD200014A0202EFFE87201E1A946811010C28012814E5E4E754E5600004FEFFFF02D40FFF02D41FFF4202EFFF053802D40FFF07001B0AEFFF46622203C4010000F2D40FFF8226EFFF8206EFFF8202EFFF07201E1A91010828012816022203C4010000F2D40FFFC226EFFFC206EFFFC202EFFF07201E1A946811010C28012814E5E4E754E5600004FEFFFF0203C400004002D40FFF8226EFFF8206EFFF8301008C000003280203C400004002D40FFF4226EFFF4206EFFF4323CFFFE3010C0813280203C400004002D40FFF0226EFFF0206EFFF0323CFF02301080813280203C400004022D40FFFC226EFFFC206EFFFC101008C0000612804E5E4E754E560D
S3FD2000159800007000303940000400223C0000FF00C081E0804E5E4E754E560000518F2D40FFF8700313C040000403700023C04000040C72FF202EFFF8D08123C040000404203C400004002D40FFFC226EFFFC206EFFFC301008C00000328070001039400004030800000167F24E5E4E754E5600004FEFFFF42D40FFF4202EFFF453802D40FFF4203C401000742D40FFF8226EFFF8206EFFF8202EFFF458807201E1A946811010C2801281203C4010002C2D40FFFC226EFFFC206EFFFC202EFFF458807201E1A946811010C28012814E5E4E754E560000518F2D40FFF8202EFFF853802D40FFF87400143940100044222EFFF858817001E3A8C480670892
S3FD2000169070002D40FFFC600670012D40FFFC202EFFFC4E5E4E750280000000FF5281600C74001418B480660453884E75538166F0700020404E75598F20492E8043D770014EB92000124E4A8066047001600270002040588F4E75518F41EF00102F480004700022402EAF000C700041FAFFCA4EB920001C1A508F4E7570FF2248528052884A1166F64E7551FC2F071E1867147400720014071200B48166045388600E1E1866EC4A00670491C8600253882E1F4E75727FB081630270FF528041F92000207772001230080020017204C0814E754FEFFFC848EF5CF800142E89266F003C7E011F470004284841EF0005421041EF0006421041EF000742107B
S3FD20001788528C4DEF000842167C0045EF000C4292702541EF001042901C14BC8067000084742B722070237A01BC826E18BC826D026032BC806E5EBC816D5ABC81672CBC80673E60507830BC846E4A782DBC846D44782DBC8467087830BC84672A6036422F000460321F470005602C760041EF000516107801B684671E78021F44000560161F47000760104A2F0004670A78021F44000460027A004A856720528C7C001C1460841F460009528C204C43EF000426D926D926D92691600001BA702ABC806600008220115880204022882028FFFC24804A806C08422F000444802480528C7C001C14203C000001FDB0926D64702EBC80660000FC70011F40B5
S3FD200018800006528C7C00702A1C14BC8066722057201058802240205720892029FFFC2F4000104A806C0641EF00064210528C7C001C14600000C2700A20464C12080041F008D02488528C7C001C1420064EB9200017404A8066E06092528C204C70FF1F4000096000FF4E700A41EF00104C100800204643F008D02F490010528C7C001C1420064EB9200017404A8066DA606870021C806006700360F872004A816768528C7C001C1460604A2F0006670000C47200122F00047002B2806600FEF470011F4000046000FEEA7078128070011F40000770031C8070086000009A4A2F0006660E4A166700FECA60064A166700FEC212BC00FF6000FEBA7068BC
S3FD200019787201BC806790706CBC806790609243EF000912867269BC816E207063BC806D10BC8067BE7064BC806784BC81678060C67058BC806700FF7860BC706EBC806E08BC806700FE7260AE7078BC806EA8706FBC806DA204860000006F3C3B6A0848C64EFB6A00FFA6FFB6FFCAFFCAFFC7FFCAFFA6FFCAFFCAFFA670012F4000106000FE364CEF5CF800144FEF00384E75740014007258B481671C726FB481670E7275B481670C7278B481670A4E7570084E75700A4E7570104E754FEFFFE448EF00F800082F6F002800041EAF00257E081A2F0023182F00212C2F002CB08766144A0567107E001E107630BE8367065281763011037600162F00208C
S3FD20001A707E02B687661A2C2F00044A8266044A04670253867E10B08766064A05670255862E0893C7D3C6B3FC000001FD6F0260287E30600411075281B2866DF87C10B08666224A05671E7001B2806612720012107030B280670E600670002040602C1117703011004A82661A720012047001B2806714720012047002B280660E702011006008702D6002702B11004CEF00F800084FEF001C4E754FEFFFD048EF58F800102C48422628007C007A004A8066364AAF004066304A2F0037670C7400142F0039726FB481671E142F0039720012027064B2806774720012027069B280676A204E600000BC43EF00391211760016017464B682677A7600160193
S3FD20001B687469B682677020014EBAFE94422F00352E00121124044C472000740A4C474004B0826C680680000000301D0052854A8466E224062205200749EF003447D726DC2248204E26DC26DC26944EBAFE7C6056142F0035720012027002B2806710720012027001B2806600FF7E702B600270201D006000FF727E0A4A806C960C80800000006704448028007C016086760016017478B6826608068000000057608C06800000003760844CEF58F800104FEF00304E754FEFFDB448EF5CF8022826482449286F025070201F4000157A007C037E026032204C70254EB9200017182F4800104A88672A206F0010200C91C02008DA804A806734224C204A57
S3FD20001C604E934A88662A70FF600003944A1466CA20056000038A204C4EB920001708DA804A8067EC224C204A4E934A8866E260D641EF00182E88206F001043EF02544EBAFABE700043EF001D1011726E2848B0816E4E726EB0816D046000019A7258B0816E167258B0816D04600000D07225B081670001CC600001E27269B0816E0001DA7263B0816D0001D27263B0816700019A7264B08167487269B0816742600001BA7278B0816E2A7273B0816D1A7273B081670000DC7275B081670000807278B081677860000194726FB081676E6000018A0C80000000FF670001806000017C122F001C70001001B086202F0254588020402F4802542028FFFC2F
S3FD20001D5874001401B487670001FA740014017201B481660249C041EF001843D722D822D822D8229041EF02284EBAFD842C484A886700012E200841EF022791C0260860000112122F001C70001001B086202F0254588020402F4802542028FFFC74001401B487670001A4740014017201B481660672001200200141EF001843D722D822D822D8229041EF02284EBAFD242C484A88670000CE609E202F0254588020402F4802542C68FFFC4A8E660001664DF9200020F86000015C7600161E4A2F001A67000092202F0024B6806F0000882600600000824A2F001A671A204E262F0024220370004EB9200016A64A886766200E6000FF4A204E4EB92000EB
S3FD20001E50170860D0202F02545880204072002F480254122F001C2068FFFC7000B2806712B2876708B286670A6000FDF230856000FDEC20856000FDE6202F0254588020402F4802544DEF00282028FFFC60064DEF002870251F40002876017000102F001828034A8067726016206F00104EB920001708DA804A80660000AC6000FDA4B08766047030600270201F400015740010161400722BB4816700009E74001400722DB48167000092720012007020B280670000867000102F0018B08766166000009E43EF0015204A70014E934A886700FD485284B8AF00206DE84A83660000BA4A2F0018660000C4601870201F400014204A43EF001470014E932F
S3FD20001F484A886700FD1A5284B8AF00206DE2600000A048C06000FE10720032006000FE664A2F001B6700FEBC6000FE9C226F0010204A4E934A886600FCF06000FCE27200122F00157030B2806600FF70224E204A70014E934A8866046000FCC4528E53836000FF58102F001D740014007261B481670C720012007041B2806600FF5EB6876C046000FC9A224E204A70024E934A8866046000FC8A5583548E6000FF3E2003224E204A4E934A886600FF3C6000FC70DA846000FC704CEF5CF802284FEF024C4E752F0E4DF9200050004A8E6606600A4E90588E20564A8866F62C5F4E75601E201023C02000500470FF2428000822280004224220412F00BE
S3C12000204048514E90508F2079200050044A8866D84E754EB9200020264EF9200009D000005072657363616C65722076616C75652069732025640A000020202020202020202028282828282020202020202020202020202020202020208810101010101010101010101010101044444444444444444444101010101010104141414141410101010101010101010101010101010101010101101010101010424242424242020202020202020202020202020202020202020210101010200000000088
S309200020FC00000000BA
S31D20002100200020FC2000500000000004000000000000000000000000F1
S70520000BFED1
